:030000000217DE06
:0C17DE00787FE4F6D8FD75812102182503
:0C000300000000000000000000000000F1
:0B1E7700EF1FAC0670011E4C70F6223D
:10002A00AB07AA06EB1BAE0270011A4E60097FAA43
:08003A007E05121E7780ED2205
:10153B00907120E04480F07F057E00121E77E4FF5F
:10154B00FE12002A75A75575AC589071327450F085
:10155B009071307403F0907136742FF07F18EF2474
:10156B0066FDE434718D82F583E4F00FEFB433EE56
:10157B00904011E4935407FF90711CE054F84FF026
:10158B00904017E493547FFF90711DE054804FF00F
:10159B00904010E493FF5401C43333335480FE90D6
:1015AB007123E0547F4EF0EFC313543F4440FFA32D
:1015BB00E054804FF0904012E493FF540FFE907173
:1015CB0046E054F04EF0EFC4540FFF90714FE054CF
:1015DB00F04FF0904013E493543FFF907140E05470
:1015EB00C04FF0904014E493907126F0904015E4B6
:0E15FB0093907128F0904016E49390712AF0BE
:0116090022BE
:081E94007405F0A374DDF022D7
:10174D0075D9DD12153B75D95590715EE054FEF0DB
:10175D0075D9BB121CB6121DE6121D8912160A127E
:10176D001BA9121D49121D28121C1C121DF8906375
:10177D001F121E949062EA121E949062E6121E943D
:10178D009062E8121E941212B7120F9512146A127B
:10179D001AE0121C84C29430040C7B017A627982A7
:1017AD00120B3E1206679062DEE0FEA3E0FF1218F8
:1017BD00F19062E2EEF0A3EFF09062E0E0FEA3E0C4
:1017CD00FF1218F19062E4EEF0A3EFF0121CE3802B
:0117DD00B853
:100CD1004262E605DD4262E805DD4262EA05DDC108
:100CE1000A4262DE05DD4262E205DD4262E005DDC7
:050CF1004262E405DD94
:101DBC00AC06ECF218EFF27817E222E47BDD7A0540
:051DCC00F9F80201A07E
:10160A007812E24401F27856E4F278277405F21867
:10161A0074DCF27833E4F218F27819E24401F278D1
:10162A0011E24401F27817E24401F27812E244012D
:10163A00F27814E24401F27818E24401F278D3E233
:10164A0054CFF2E24410F2E254FCF2E24401F29086
:10165A00718AE4F090718C740AF07812E24402F212
:10166A007857E4F278297405F21874DCF27837E4D2
:10167A00F218F27819E24402F27811E24402F2789E
:10168A0017E24402F27812E24402F27814E24402C7
:10169A00F27818E24402F278D3E254F3F2E2440414
:0816AA00F290718B7409F0222B
:091E82007833121DBC4401F22268
:091E8B007837121DBC4402F2225A
:0C1E53007818E230E0037F01227F0022BB
:0C1E5F007818E230E1037F01227F0022AE
:0D1E39007818E24401F290718C740AF022D6
:0E000F0090718CE4F0D2967818E254FEF22242
:0D1E46007818E24402F290718B7409F022CA
:0E1E2B0090718BE4F0D2957818E254FDF2220B
:1018F1009063097405F0A374DDF0300A0A9063095E
:101901007404F0A374B0F090631FE0FCA3E0FD1237
:101911000343121DC7A804A905AA06AB07906309D2
:10192100E0FEA3E0FFE4FCFD120115121DC7AC06A9
:10193100AD07D39062E7E09D9062E6E09C5005E040
:10194100FCA3E0FDD39062E9E09D9062E8E09C5049
:1019510005E0FCA3E0FDD39062EBE09D9062EAE03C
:0C1961009C5005E0FCA3E0FDAE04AF05C7
:01196D002257
:100CF6004162D7004262D5FFFF4262DAFFFF4262DD
:100D0600D3FFFF4262DCFFFFC1014162D9004162AD
:100D1600D8004162C7004162C800C1004162C900F3
:100D26004162CA004462CB000000004262CF00006C
:050D36004262D1FFFF45
:101B6A007FEA7E0BFDFC906309120275C302023202
:101B7A00907123E054F8F0E0441EF090712274074B
:101B8A00F022E0FF906312E09F906311E09E2290A2
:0F1B9A0062CAE0C3941422906311E0FFA3E0221B
:101CB60078F2E24403F278E3E244C0F278F0E254C8
:101CC600FDF208E254FDF208E2440CF278D0E25448
:0D1CD600F7F208E254F7F208E244C0F222EF
:101DE60043AA04D2AF786AE24479F27F017E000208
:021DF600002AC1
:101A970043AA04D2AFEF24FE601C14602114602611
:101AA7002403702E907123E054D8F0E0441D121BDC
:101AB70084759917801C121B7A7599198014121B4B
:101AC7007A759918800C907123E054D8121B807591
:091AD700990B7869E24448F222FF
:101DA4009062D3E0FEA3E0FF7C007D0C120343E4C9
:081DB4007B0AFAF9F80201A014
:10146A0090630912028D000000009062D7E06402C6
:05147A00700302153AA9
:10147F009062C7E004F0E0C39464500302153AE4AD
:01148F00F06C
:10149000121DA49063091202817F327E337D017C8C
:0F14A00000121B70400302153A9062D7E07028CB
:1014AF00121B6A50089062C8E004F08005E4906255
:1014BF00C8F09062C8E0C3940AE44007F09062D786
:0814CF0004F0229062D7F02224
:0814D7009062D7E06401705B34
:1014DF0020000FD20090631312028D000000001243
:1014EF001E6BE47F307E75FDFC906313121B7340FF
:0114FF003AB2
:10150000E4121B6A50089062C9E004F08005E49080
:1015100062C9F09062C9E0C3940A4018E4F0906296
:10152000D77402F0121E1B90631312028D0000008C
:0A15300000C200229062D77401F09F
:01153A00228E
:101C84009062D7E07008300728C20702038E906282
:101C9400D7E0B4010B9062E67402F0A374EEF02274
:101CA4009062D7E0B4020A9062E67401F0A37477FC
:021CB400F0221C
:101AE0009062DCE0FEA3E0FFF47002EEF46035905B
:101AF00062D9E0701AD3EF9420EE940E5004D20114
:101B00008002C2019062EA7405F0A374DDF022C382
:101B1000EF94C8EE940E4002C2019062EA7401F0A4
:041B2000A37477F043
:011B2400229E
:03004200020E5D4E
:100E5D00C0E0C0F0C083C082C0D075D000C000C05B
:100E6D0001C002C003C004C005C006C007786BE214
:060E7D0020E103020F7AE0
:100E8300AF93EF75F010A4FFE594C4540FFDEF4D3D
:100E9300FF906311E5F0F0A3EFF0E24402F29062F9
:090EA300D8E064026003020F4A6A
:100EAC00121B99505EE004F0E0C39402404A906239
:100EBC00CFE0FEA3D3121B8C400CE0FFA3E09062AA
:100ECC00CFCFF0A3EFF09062D1E0FEA3C3121B8C46
:100EDC00500CE0FFA3E09062D1CFF0A3EFF0906252
:100EEC00CB120275906311E0FEA3E0FFE4FCFD124F
:100EFC0001089062CB120281121B9950067869E2AC
:100F0C004401F2121B994066A31202697804120282
:100F1C00439062D5EEF0A3EFF09062D87403F0909A
:100F2C0062CAE4F09062CFF0A3F09062D174FFF04B
:0C0F3C00A3F09062CB12028D00000000B8
:100F480080309062D8E0B40508121BA19062DA8064
:100F58001C9062D8E0B40708121BA19062D3800DE0
:100F68009062D8E0B4090B121BA19062DCCFF0A309
:020F7800EFF098
:100F7A00D007D006D005D004D003D002D001D000CB
:0B0F8A00D0D0D082D083D0F0D0E03275
:100D3B004262FF0000426301000042630300004473
:060D4B006305000000003A
:071EA400E475F0010200F2F9
:101D890043A820D2AF75D10178957401F218747601
:0B1D9900F2789174A0F21874FDF222A1
:03001E000210AE1F
:1010AE00C0E0C0F0C083C082C0D075D000C000C008
:1010BE0001C002C003C004C005C006C0077891E29B
:1010CE0020E70302119FE24480F2D209906283E08E
:0810DE00C394FF5003E004F08D
:1010E600300425906269E0601F9062FF121EA4C35F
:1010F600906300E094609062FFE094EA4011E4F0AF
:0F110600A3F0906269F080079062FFE4F0A3F01D
:10111500300127906303121EA4906301E4F0A3F04D
:10112500C3906304E09432906303E09400402FE49D
:10113500F0A3F09062D904F08024906301121EA4FC
:10114500906303E4F0A3F0C3906302E094409063DE
:0E11550001E0941F4008E4F0A3F09062D9F08E
:10116300200A39906305120269EF2401FFE43EFE71
:10117300E43DFDE43CFC9063051202817F807EEE3A
:101183007D367C00906305120275C3120232400C57
:0C11930090630512028D00000000D20ADB
:10119F00D007D006D005D004D003D002D001D000A4
:0B11AF00D0D0D082D083D0F0D0E0324E
:070D510044631300000000E1
:081E9C00789CE2541FF2E222DF
:101BA900E5B154CF42B1789CE254E3F2E24414F235
:101BB900E254FCF2E24401F208E24480F2E24420F9
:101BC900F278A1743BF2187460F2789EE4F208F29C
:0C1BD900121E9C44A0F253A8BFD2AF2201
:0C1E6B00121E9C44C0F243A840D2AF22DB
:101E1B00121E9C44A0F2789EE4F208F253A8BF2253
:03002100021A4878
:101A4800C0E0C0F0C083C082C0D075D000C000C064
:101A580004C005C006C007789DE230E71DE2448057
:101A6800F2906313120269EF2401FFE43EFEE43DA5
:101A7800FDE43CFC906313120281D007D006D00528
:0F1A8800D004D000D0D0D082D083D0F0D0E032C4
:090D5800C102C1034262FD00006A
:1019E9009062F1120269EF4401FFEC9062F1020288
:1019F900819062F0E4F09062F5229062ECE0FEA33F
:101A0900E0FF229062EEE0FEA3E0FF22E475F00120
:101A19000200F29062F67401F09062F5E4F022900F
:101A290062E3E09F9062E2E09E229062E5E09F908F
:0F1A390062E4E09E229062F0E004F0E064182284
:101D490043A901D2AF75D104907105E4F0907104F3
:101D59007424F090710174A0F090710074FDF02268
:030024000208F3DC
:1008F300C0E0C0F0C083C082C0D075D000C000C0CB
:1009030001C002C003C004C005C006C00790710146
:10091300E020E703020B23E04480F09062F9121A0F
:10092300159062FB121A159062FD121A15C390629C
:10093300FCE0940D9062FBE094004006E4F0A3F029
:10094300D203C39062FAE0940D9062F9E094004000
:0709530006E4F0A3F0D2025C
:10095A0020833D9062F7E004F0E0C3941E50030246
:10096A000A629062F0E064176003020A629062F819
:10097A00E09406400AE0941450051219E9800B909D
:10098A0062F8E0C394014002E0FF121A1C020A62F4
:10099A009062F7E0D394005003020A48E0D39432FD
:1009AA0040129062F112028D000000001219FA043E
:1009BA00F0020A359062F5E060249062F7E0C39491
:1009CA0002401BE094075016A3E0C39406400FE0D0
:1009DA009414500A1219E9121A3E604F803190623B
:1009EA00F5E060399062F7E0C394074030E0941470
:1009FA00502BA3E0C394014024E09406501F906258
:100A0A00F1120269EF54FE1219F2121A3E601CA387
:100A1A0012026978011202561219F4800E9062F1DC
:100A2A0012028D000000001219FAF09062F7E4F049
:100A3A00A3F09062F0E0B41819121A1C80149062A4
:100A4A00F5E0700E9062F112028D0000000012199A
:100A5A00FAF09062F8E004F09062F6E0601B9062AF
:100A6A00F0E4F09062F6F0A3F0A3F09062F11202C3
:090A7A00699062BD120281D205EF
:100A8300C39062FEE094149062FDE0940050030270
:100A93000B23E4F0A3F0300803020B23121A03D351
:100AA300121A2840099062ECE475F0018010121AC2
:100AB30003C3121A28500A9062EC74FFF5F0120077
:100AC300F2121A0CD3121A3340099062EEE475F055
:100AD300018010121A0CC3121A33500A9062EE747A
:100AE300FFF5F01200F2121A03121E82121A0C12F0
:100AF3001E8BD39062EDE094009062ECE094005082
:100B03000512000F8003121E39D39062EFE09400A8
:100B13009062EEE094005005121E2B8003121E46D5
:100B2300D007D006D005D004D003D002D001D00026
:0B0B3300D0D0D082D083D0F0D0E032D0
:070D610042631F05DDC10B19
:101D6900E0FEA3E0FF1203437B0AE4FAF9F812014B
:101D7900A0E42290630AE094DD906309E0940422D0
:100F95009062DAE0FFA3E0906309CFF0A3EFF09051
:100FA5006309E0F47003A3E0F470030210AD300BA5
:100FB500030210A5D390630AE094EA906309E094D4
:100FC50001500AE490631FF0A3F0021098D3121D9C
:100FD5007C5029E0FEA3E0FFEF2416FFEE34FEFE71
:100FE500E434FFFDE434FFFCE47BBA7A0BF9F81234
:100FF5000115121D717BDD7A0402107FD390630AFF
:10100500E094EE906309E09408500E7C177D74120D
:101015001D697BEE7A0802107FD390630AE0941273
:10102500906309E0940B5017E0FEA3E0FF7C057D7B
:10103500DD1203437B02121D737B127A0B803BD3B7
:1010450090630AE094BC906309E0940C500D7C23F6
:101055007D2E121D697BBC7A0C801FD390630AE03C
:101065009491906309E0940F501FE0FEA3E0FF7C8C
:101075002E7DE8121D6E7B917A0FF9F81201A09072
:10108500631FEEF0A3EFF0800A90631F7405F0A3D1
:1010950074DDF090631FE07002A3E0700BD20B22A9
:0810A500C3121D7C4002C20BC6
:0110AD002220
:100D68004162690044627EFFFFFFFF4662C10000E6
:100D780000000000C104C1054462BD000000005429
:100D8800626A0821222324042526272802292A2BDF
:100D98002C012D2E2F3060286295140102030418AF
:100DA8000506070810090A0B0C150D0E0F10051182
:100DB800121314081516171806191A1B1C091D1EDC
:100DC8001F205362823200000000000F1200000052
:0C0DD800040001FF16B2FF004162680039
:1013930075F04B9062DEE41200F2D39062DFE094CA
:1013A300DD9062DEE094052275F04B9062E0E4127A
:1013B30000F2D39062E1E094DD9062E0E0940522D4
:1013C30074FF75F0B51200F2C39062DFE0944B90A6
:1013D30062DEE094002274FF75F0B51200F2C39050
:1013E30062E1E0944B9062E0E094002212024390A9
:1013F30062C1120275C302023274FF75F0DB120080
:10140300F2C39062DFE094252274FF75F0DB1200D3
:10141300F2C39062E1E09425229062BD02026974F6
:1014230005F0A374DDF0229062C6E064C522EE7578
:10143300F005A4246AF582E4346222EE75F005A473
:101443002495F582E43462227B017A6279C17406C1
:10145300F0E4FF2212024390627E0202819062C195
:0714630012026990627E2273
:1016B20020050302174AC20512141CEC4D4E4F704E
:0416C20003021747C1
:1016C60012141CEF906309F0906269E0602B90633E
:1016D60009E0540FFBBB010F12141C7804121457B7
:1016E600906309EBF0804A906309E064147042123B
:1016F600141C7808121457803812142A702D906220
:10170600C5E0B4011312141C78041213EF7009908B
:101716006309E0540FF080199062C5E0B4020A1222
:10172600141C78081213EF6008800090630974FF98
:10173600F09062BD12028D00000000906309E0FF88
:011746002280
:061747007FFF227FFF225C
:021B2500A9070E
:101B2700E4FFFEEB64017014121431F583E0B50194
:101B37000512143180180EEEB404ED22EB64027026
:101B470021FE12143EF583E0B5011212143EF5830F
:101B5700E5822DF582E43583F583E0FF220EEEB4AE
:021B670008E094
:011B69002259
:08186A0090630AEFF0A3EDF01A
:10187200E4A3F0A3F0906269E060351214601213E1
:10188200F5701812142A70139062C5E0B401028038
:10189200339062C5E064027050803C90630AE0FFBE
:1018A200B41402803790630AE0FF6401703B801930
:1018B2001214601213F5703112142A702C9062C542
:1018C200E0B4010C90630AE0FFA3E0FD7B0180110C
:1018D2009062C5E0B4021290630AE0FFA3E0FD7BD0
:0E18E20002121B2590630CEFF090630CE0FFE8
:0118F00022D5
:10066700E4906309F0906293E0F470030208F2E00B
:10067700FFA3E0FD12186A906309EFF0906293748C
:05068700FFF0E4A3F008
:10068C00906269E06401705A906309E0FF906268BF
:10069C00E06F7044EF64036005EF642F705E90624E
:1006AC00C674C5F090627E1202699062C11202811A
:1006BC00906309E09062C5B403057402F080037482
:1006CC0001F0E4FF121E0A90630E12144B121BE58C
:1006DC009062697402F08024906309E0906268F083
:1006EC00801A906269E0B40213906309E0FF64041D
:0C06FC006004EFB43006E4906269F02264
:1007080012142A60030208F2906269E0600F906296
:100718007E1202691213F27004906269F090630904
:10072800E012031707780107780407870507870889
:10073800078A0907950B07A30D07AE0F07BC11071A
:10074800BC1407C21507C21807C81907D71B07F337
:100758001D080B1F082921083C23085D25085D2872
:1007680008722908992B08CC2D08CC30000008F213
:10077800121E53EF7006121E5FEF60030208D802C4
:1007880008E612139350030208F20208EF75F025E9
:1007980012139650030208F20208EF1213AB50032B
:1007A8000208F20208EF75F0251213AE5003020892
:1007B800F20208EF9062DE02086A9062E002086ABC
:1007C8001213CB401F1213C340030208F2802912F0
:1007D80014041213D2400D1213FC1213D240030258
:1007E80008F28014E49062DE0208E21213E1400C81
:1007F8001213D940030208F2E40208E2E49062E02E
:100808000208E21214141213E8400F12140C121307
:10081800E840030208F2E40208E2E49062E0020819
:10082800E212139340031214221213AB500302086E
:10083800F20208EF9062DEE475F02512139A400385
:100848001214229062E0E475F0251213B2500302EC
:1008580008F20208EF9062DE7402F0A374EEF090E2
:1008680062E07402F0A374EEF0221213CB40081277
:1008780013C3500AE48004E49062DEF0A3F012137C
:10088800E140081213D95062E4804FE49062E0809E
:10089800491214041213D2400B1213FC1213D25033
:1008A8000AE48004E49062DEF0A3F0121414121338
:1008B800E8400B12140C1213E8502FE4801CE4904B
:1008C80062E08016121E53EF7006121E5FEF600E74
:1008D800E49062DEF0A3F09062E0F0A3F022906270
:0A08E800DE1214229062E0121422C6
:0108F20022E3
:101C1C0078C0E24408F278C2E2543FF278D0E24451
:101C2C0002F278D2E254F3F2209104D2048002C280
:101C3C000430040F90630D12144B121C5090626907
:041C4C007401F0220D
:040DE40041631A004D
:101D0700906309F09063170202BE90000612005E0E
:101D1700FE90000802005E9000091200D090000CAF
:011D27002299
:100B3E00E4906309F07FFFA374FFF0906317120235
:100B4E00DE90000112005EFE120045FDEEC39D50C8
:100B5E0003020CD0121D0B900001E41200D0900085
:100B6E000E1202E712033DEFF4600890631A74232D
:100B7E00F0800990631AE06003E014F0121D0B90F0
:100B8E00000312005E6F601590000512005E600D8E
:100B9E00900004E41200D0900003020CCC900005EB
:100BAE0012005EFE90000412005EC39E500B121DDA
:100BBE000B900004740102008B121D0B90000212A8
:100BCE00005E6F6048EFF4701C121D11C39E400A48
:100BDE007404121D079000028061121D0B90000A12
:100BEE007401020CC3121D0B9000087401121D211A
:100BFE0012005E6F906317600C1202BE7401121D1C
:100C0E001EEF020CC31202BE900009803DEFF4707D
:100C1E0041121D0B90000912005ED3940050030286
:100C2E000CC690000B12005EFE90000A12005ED3FE
:100C3E009E40117401121D0790000C12005E90630D
:100C4E000AF08054121D0B90000A740112008B02E0
:100C5E000CC6121D0B121D18C394FF5008900008ED
:100C6E00740112008B121D11B506089063097402EF
:100C7E00F08020121D0B900007121D146E7039901B
:100C8E0063097403121D0A90000612005E9000089C
:100C9E001200D090630AEFF0121D0BE4121D1E74A9
:100CAE00FF1200D090630AE09000111200D0906302
:100CBE0009E09000121200D0121D0B900002EF12EC
:020CCE0000D054
:010CD0002201
:101E0A0075AF3F8FAF75AEB975A402E5A530E1FB9A
:011E1A0022A5
:101BE50090630B1202DE75AF3F8FAF90630EE0C3BB
:101BF50094014022E5A530E0FB90630BE475F0010C
:101C05001202C7120045F5A675AEB975A401906319
:071C15000EE014F080D5225F
:101C500090630A1202DE90630DE06027AE070FEE7C
:101C60002400FDE4343F8D82F583E493FE90630A03
:101C7000E475F0011202C7EE1200BE90630DE0148D
:041C8000F080D322FB
:101DF80078D2E254CFF2E24410F2907188E4F0C253
:021E0800922224
:101CE300C39062EDE094969062ECE094005012C3CE
:101CF3009062EFE094969062EEE094005003D292EB
:041D030022C2922244
:040DE8004163220140
:071EAB007869E24401F22214
:101D280043A902D2AF75D10890710D7401F090717A
:101D38000C745DF090710974A0F090710874FDF056
:011D48002278
:030027000211BA09
:1011BA00C0E0C0F0C083C082C0D075D000C000C0FB
:1011CA0001C002C003C004C005C006C0079071096F
:0E11DA00E020E70302129C907109E04480F0CF
:1011E800906321E004F0E0C39408400AA3E060069D
:1011F800E4F09062D8F0906321E0C3940A4007E4D9
:06120800F0D207A304F080
:10120E009062D8E06004E0B4090E7F01121A979044
:10121E0062D87401F002129C9062D8E0B4010812F8
:10122E001EAB7402F080679062D8E0B4030D7F02AB
:10123E00121A979062D87404F080539062D8E0B47A
:10124E000408121EAB7405F080449062D8E0B40519
:10125E000D7F03121A979062D87406F08030906258
:10126E00D8E0B40608121EAB7407F080219062D845
:10127E00E0B4070D7F04121A979062D87408F080BC
:10128E000D9062D8E0B40806121EAB7409F0D007B8
:10129E00D006D005D004D003D002D001D000D0D0DB
:0912AE00D082D083D0F0D0E032F0
:100DEC0042600300004262650000426263100041F1
:100DFC0062670060406005FFFF000000000000001B
:100E0C0000000000000000000000000000000000D6
:100E1C0000000000000000000000000000000000C6
:100E2C0000000000000000000000000000000000B6
:100E3C000000000000000041600000416001004122
:050E4C00600200C10678
:10196E00EF25E0FFEE33FE74472FF58274603EF5EF
:10197E0083227FC37E05E4FDFC906309120275D3BA
:10198E00020232ECF0A3EDF090630FE475F0010269
:10199E0000F2D39062E9E094EE9062E8E0940222C5
:1019AE0090630FE0FEA3E0FFC322906000E025E00D
:1019BE002405F582E43460F58322E490630FF0A3EE
:1019CE00F02233FE74052FF58274603EF58322906B
:0B19DE006310E025E0FF90630FE022A3
:10038E0090630912028D000000009062D5E0FFA379
:10039E00E090630DCFF0A3EFF090630DE0F47003E7
:1003AE00A3E0F47003020666906005E0F47003A308
:0403BE00E0F4703FB8
:1003C2001219C91219AE9420EE9400501590630DC3
:1003D200E0FCA3E0FDEF25E0FFEE1219D012199127
:1003E20080E11219C81219AE940EEE940150599080
:0F03F200630DE0FCA3E0FD12196E12199180E675
:100401001219B8E0FFA3E090630FCFF0A3EFF090D3
:10041100630DE0FEA3E0FF90630FEE8FF01200F298
:1004210090630FE0C313FEA3E013FF90630FEEF0A0
:10043100A3EFF01219B8EEF0A3EFF0906000E00422
:09044100F0E0C394204002E4F055
:10044A001219C89063091202751219DD1219D0E047
:10045A00FEA3E0FFE4FCFD12010890630912028189
:10046A0012199690630FE07004A3E0642070D49090
:10047A006309120269780512024390630912028124
:10048A00906309120269AD07AC06906046E025E068
:10049A00FF906045E033FE74472FF58274603EF5A5
:1004AA0083ECF0A3EDF0906045121999C390604671
:0F04BA00E0940E906045E094014004E4F0A3F05C
:1004C9001219C8906265F0A3F09062637410F0A3EA
:1004D900E4F01219AE940EEE9401400302056C1279
:1004E900196EE0FCA3E0FD906265E0FAA3E0FBD39E
:1004F900ED9BEC9A400F121975E0FFA3E09062653D
:10050900CFF0A3EFF01219DD121973E0FCA3E0FD9F
:10051900906263E0FAA3E0FBC3ED9BEC9A500F12E3
:100529001975E0FFA3E0906263CFF0A3EFF090624A
:1005390063E0FEA3E0FFC3906266E09FFF906265FF
:10054900E09EFED3EF9450EE9400400890626774E9
:100559001EF08009906267E06003E014F0121996BA
:030569000204DBAE
:10056C00E47F8B7E06FDFC906309120275C31202B8
:10057C0032500C3006597F8B7E061219844050E4A1
:10058C00906001F0A3F0D206906267E0B41E1BE00D
:10059C0014F01219A0400774FFF5F01200F2C31208
:1005AC0019A14003020666020620906267E0600310
:1005BC00020666200203020666C202C39062E9E0EC
:1005CC0094DD9062E8E094054003020666803C12DC
:1005DC0019804048E47F6D7E0612198540089060B2
:1005EC0001E064047036300371C203906001E0C313
:1005FC0094045003E004F0E4906002F0C206121977
:10060C00A040028043C31219A15006E475F001808A
:10061C003C9062E87402F0A374EEF0221219804050
:10062C0006906002E06033300330C20390600274C5
:10063C0001F0E4906001F0C206D39062E9E094C24C
:10064C009062E8E09401400874FF75F0FE0200F23D
:0A065C009062E87401F0A374C2F08C
:010666002271
:0B0E5100C10844631B00000000C10941
:101DD100CFF0A3EFF09062EEE0FFA3E0229062EC7F
:051DE100E0FFA3E02279
:1012B700E49062ECF0A3F09062EEF0A3F0D2081293
:1012C7000F9590631FE0FEA3E0FFC39062EDE09FE0
:1012D7009062ECE09E401490631FE0FEA3E0FF9055
:1012E70062EFE09F9062EEE09E507C300960C20999
:1012F70090631B120269EF24BBFFE43EFEE43DFD51
:10130700E43CFC90631B120281E47FE87E03FDFC52
:1013170090631B120275C3120232403290631B1294
:101327000269C3EF94E8FFEE9403FEED9400FDEC31
:101337009400FC90631B1202819062ECE475F0014B
:101347001200F2121DDE9062EECFF0A3EFF0906272
:10135700ECE0FEA3E0FF121E829062EEE0FEA3E047
:10136700FF121E8B0212C6121DDE9062E2121DD101
:101377009062E4CFF0A3EFF0121DDE9062DE121D43
:0C138700D19062E0CFF0A3EFF0C208228A
:1017EA0002174DE493A3F8E493A34003F68001F2B1
:1017FA0008DFF48029E493A3F85407240CC8C33300
:10180A00C4540F4420C8834004F456800146F6DFCE
:10181A00E4800B0102040810204080900CD1E47E81
:10182A00019360BCA3FF543F30E509541FFEE493C3
:10183A00A360010ECF54C025E060A840B8E493A38A
:10184A00FAE493A3F8E493A3C8C582C8CAC583CAB5
:10185A00F0A3C8C582C8CAC583CADFE9DEE780BE6D
:010E5C000095
:10004500BB010689828A83E0225002E722BBFE02B9
:09005500E32289828A83E49322EC
:10005E00BB010CE58229F582E5833AF583E0225057
:10006E0006E92582F8E622BBFE06E92582F8E222A1
:0D007E00E58229F582E5833AF583E49322BB
:10008B00BB010FF8E58229F582E5833AF583E02879
:10009B00F0225009C58229F8E58226F622BBFE091B
:1000AB00C58229F8E22582F222F8EA2583F583E955
:0300BB0093282265
:1000BE00BB010689828A83F0225002F722BBFE0121
:0200CE00F3221B
:1000D000F8BB010DE58229F582E5833AF583E8F066
:1000E000225006E92582C8F622BBFE05E92582C812
:0200F000F222FA
:1000F200C5F0F8A3E028F0C5F0F8E5821582700299
:060102001583E038F02235
:0D010800EF2BFFEE3AFEED39FDEC38FC2246
:10011500E88FF0A4CC8BF0A42CFCE98EF0A42CFC89
:100125008AF0EDA42CFCEA8EF0A4CDA8F08BF0A407
:100135002DCC3825F0FDE98FF0A42CCD35F0FCEB66
:100145008EF0A4FEA9F0EB8FF0A4CFC5F02ECD392B
:0F015500FEE43CFCEAA42DCE35F0FDE43CFC2298
:1001640075F008758200EF2FFFEE33FECD33CDCC52
:1001740033CCC58233C5829BED9AEC99E5829840D5
:100184000CF582EE9BFEED9AFDEC99FC0FD5F0D6B2
:10019400E4CEFBE4CDFAE4CCF9A88222B800C1B9DC
:1001A4000059BA002DEC8BF084CFCECDFCE5F0CB1A
:1001B400F97818EF2FFFEE33FEED33FDEC33FCEB53
:1001C40033FB10D703994004EB99FB0FD8E5E4F90E
:1001D400FA227818EF2FFFEE33FEED33FDEC33FCFB
:1001E400C933C910D7059BE99A4007EC9BFCE99AEF
:1001F400F90FD8E0E4C9FAE4CCFB2275F010EF2F34
:10020400FFEE33FEED33FDCC33CCC833C810D70733
:100214009BEC9AE899400AED9BFDEC9AFCE899F86E
:0E0224000FD5F0DAE4CDFBE4CCFAE4C8F92201
:10023200EB9FF5F0EA9E42F0E99D42F0E89C45F022
:010242002299
:10024300E8600FECC313FCED13FDEE13FEEF13FF99
:03025300D8F122BD
:10025600E8600FEFC333FFEE33FEED33FDEC33FC06
:03026600D8F122AA
:0C026900E0FCA3E0FDA3E0FEA3E0FF2208
:0C027500E0F8A3E0F9A3E0FAA3E0FB220C
:0C028100ECF0A3EDF0A3EEF0A3EFF022F0
:10028D00A8828583F0D083D0821202A41202A41218
:10029D0002A41202A4E473E493A3C583C5F0C5833D
:1002AD00C8C582C8F0A3C583C5F0C583C8C582C8BB
:0102BD00221E
:0902BE00E0FBA3E0FAA3E0F92241
:1002C700F8E0FBA3A3E0F925F0F0E58215827002C0
:0702D7001583E0FA38F02264
:0902DE00EBF0A3EAF0A3E9F02221
:1002E700BB010DE58229F582E5833AF5830202BE5B
:1002F7005007E92582F8020370BBFE07E92582F85B
:10030700020379E58229F582E5833AF583020382C0
:10031700D083D082F8E4937012740193700DA3A375
:1003270093F8740193F5828883E473740293686089
:06033700EFA3A3A380DF89
:06033D008A838982E4734B
:10034300EC8EF0A4CCC5F0CCCDF8EFA4CEC5F02D47
:10035300FDE43CFCE8A42EC8C5F03DFDE43CFCEF05
:0D036300A4FFE5F028FEE43DFDE43CFC2293
:09037000E6FB08E6FA08E6F922B2
:09037900E2FB08E2FA08E2F922B5
:0C038200E493FB740193FA740293F922D7
:00000001FF
