:0300000002176381
:0C176300787FE4F6D8FD7581210217AAFA
:0C000300000000000000000000000000F1
:0B1DF500EF1FAC0670011E4C70F622C0
:10002A00AB07AA06EB1BAE0270011A4E60097FAA43
:08003A007E05121DF580ED2288
:10134D00907120E04480F07F057E00121DF5E4FFD2
:10135D00FE12002A75A75575AC589071327450F075
:10136D009071307403F0907136742FF07F18EF2464
:10137D0066FDE434718D82F583E4F00FEFB433EE46
:10138D00904011E4935407FF90711CE054F84FF016
:10139D00904017E493547FFF90711DE054804FF0FF
:1013AD00904010E493FF5401C43333335480FE90C6
:1013BD007123E0547F4EF0EFC313543F4440FFA31D
:1013CD00E054804FF0904012E493FF540FFE907163
:1013DD0046E054F04EF0EFC4540FFF90714FE054BF
:1013ED00F04FF0904013E493543FFF907140E05460
:1013FD00C04FF0904014E493907126F0904015E4A6
:0E140D0093907128F0904016E49390712AF0AD
:01141B0022AE
:081E12007405F0A374DDF02259
:1016D20075D9DD12134D75D95590715EE054FEF047
:1016E20075D9BB121C34121D64121D0712158F12FC
:1016F2001B27121CC7121CA6121B9A121D7690637E
:101702003C121E1290630B121E12906307121E12DD
:10171200906309121E1212119A120F9312141C12C4
:101722001AE9121C02C29430040C7B017A6279829B
:10173200120CC81206589062FFE0FEA3E0FF1218D6
:1017420076906303EEF0A3EFF0906301E0FEA3E076
:10175200FF121876906305EEF0A3EFF0121C618081
:01176200B8CE
:100B2F0042630705DD42630905DD42630B05DDC145
:100B3F000A4262FF05DD42630305DD42630105DD05
:050B4F0042630505DD15
:101D3A00AC06ECF218EFF27817E222E47BDD7A05C2
:051D4A00F9F80201A000
:10158F007812E24401F27856E4F278277405F218E3
:10159F0074DCF27833E4F218F27819E24401F2784D
:1015AF0011E24401F27817E24401F27812E24401A9
:1015BF00F27814E24401F27818E24401F278D3E2AF
:1015CF0054CFF2E24410F2E254FCF2E24401F29002
:1015DF00718AE4F090718C740AF07812E24402F28E
:1015EF007857E4F278297405F21874DCF27837E44E
:1015FF00F218F27819E24402F27811E24402F2781A
:10160F0017E24402F27812E24402F27814E2440242
:10161F00F27818E24402F278D3E254F3F2E244048F
:08162F00F290718B7409F022A6
:091E00007833121D3A4401F2226C
:091E09007837121D3A4402F2225E
:0C1DD1007818E230E0037F01227F00223E
:0C1DDD007818E230E1037F01227F002231
:0D1DB7007818E24401F290718C740AF02259
:0E000F0090718CE4F0D2967818E254FEF22242
:0D1DC4007818E24402F290718B7409F0224D
:0E1DA90090718BE4F0D2957818E254FDF2228E
:101876009063207405F0A374DDF0300A0A906320AB
:101886007404F0A374B0F090633CE0FCA3E0FD1296
:101896000343121D45A804A905AA06AB07906320B9
:1018A600E0FEA3E0FFE4FCFD120115121D45AC06A7
:1018B600AD07D3906308E09D906307E09C5005E078
:1018C600FCA3E0FDD390630AE09D906309E09C5081
:1018D60005E0FCA3E0FDD390630CE09D90630BE074
:0C18E6009C5005E0FCA3E0FDAE04AF0543
:0118F20022D3
:100B54004162F800C1014162FA004162F900416258
:100B6400D500602062D6FFFF0000000000000000F6
:100B74000000000000000000000000000000000071
:100B84000000000000004162C7004162C800C100CB
:100B94004162C9004162CA004462CB0000000042C5
:090BA40062CF00004262D1FFFFA4
:101AAA00907123E054F8F0E0441EF090712274071C
:101ABA00F0227FEA7E0B906320FDFC120275C302BE
:101ACA000232E0FF906329E09F906328E09E229013
:0F1ADA0062CAE0C3941422906328E0FFA3E022C5
:101C340078F2E24403F278E3E244C0F278F0E2544A
:101C4400FDF208E254FDF208E2440CF278D0E254CA
:0D1C5400F7F208E254F7F208E244C0F22271
:101D640043AA04D2AF786AE24479F27F017E00028A
:021D7400002A43
:101A1C0043AA04D2AFEF24FE601C1460211460268C
:101A2C002403702E907123E054D8F0E0441D121A58
:101A3C00B4759917801C121AAA7599198014121A68
:101A4C00AA759918800C907123E054D8121AB075AD
:091A5C00990B7869E24448F2227A
:101D22009062D3E0FEA3E0FF7C007D0C120343E44B
:081D32007B0AFAF9F80201A096
:10141C0090632012028D000000009062F8E06402DC
:05142C0070030214DA58
:101431009062C7E004F0E0C3946450030214DAE45C
:01144100F0BA
:0F144200121D229063201202819062F8E0702840
:10145100121ABC50089062C8E004F08005E4906262
:10146100C8F09062C8E0C3940AE44007F09062F8C3
:0814710004F0229062F8F02261
:081479009062F8E06401705973
:1014810020000FD20090633012028D000000001284
:0F1491001DE9E47F307E75906330121AC3403A34
:1014A000E4121ABC50089062C9E004F08005E49090
:1014B00062C9F09062C9E0C3940A4018E4F09062F7
:1014C000F87402F0121D9990633012028D00000032
:0A14D00000C200229062F87401F0DF
:0114DA0022EF
:101C02009062F8E07008300728C20702038E9062E3
:101C1200F8E0B4010B9063077402F0A374EEF022B3
:101C22009062F8E0B4020A9063077401F0A374773B
:021C3200F0229E
:101AE9009062FDE0FEA3E0FF9062FAE0701AD3EF86
:101AF9009420EE940E5004D2018002C20190630B2F
:101B09007405F0A374DDF022C3EF94C8EE940E407F
:0D1B190002C20190630B7401F0A37477F019
:011B2600229C
:03004200020E5B50
:100E5B00C0E0C0F0C083C082C0D075D000C000C05D
:100E6B0001C002C003C004C005C006C007786BE216
:060E7B0020E103020F78E4
:100E8100AF93EF75F010A4FFE594C4540FFDEF4D3F
:100E9100FF906328E5F0F0A3EFF0E24402F29062E4
:090EA100F9E064026003020F484D
:100EAA00121AD9505EE004F0E0C39402404A9062FC
:100EBA00CFE0FEA3D3121ACC400CE0FFA3E090626D
:100ECA00CFCFF0A3EFF09062D1E0FEA3C3121ACC09
:100EDA00500CE0FFA3E09062D1CFF0A3EFF0906254
:100EEA00CB120275906328E0FEA3E0FFE4FCFD123A
:100EFA0001089062CB120281121AD950067869E26F
:100F0A004401F2121AD94066A31202697804120245
:100F1A00439062F6EEF0A3EFF09062F97403F0905A
:100F2A0062CAE4F09062CFF0A3F09062D174FFF04D
:0C0F3A00A3F09062CB12028D00000000BA
:100F460080309062F9E0B40508121AE19062FB80E5
:100F56001C9062F9E0B40708121AE19062D3800D82
:100F66009062F9E0B4090B121AE19062FDCFF0A38A
:020F7600EFF09A
:100F7800D007D006D005D004D003D002D001D000CD
:0B0F8800D0D0D082D083D0F0D0E03277
:0F0BAD0042632A000042632C000042632E0000C6
:071E2200E475F0010200F27B
:101D070043A820D2AF75D10178957401F218747683
:0B1D1700F2789174A0F21874FDF22223
:03001E000214DBEE
:1014DB00C0E0C0F0C083C082C0D075D000C000781F
:1014EB0091E220E703021582E24480F2D209906276
:0A14FB0083E0C394FF5003E004F007
:10150500300425906269E0601F90632A121E22C391
:1015150090632BE0946090632AE094EA4011E4F034
:0F152500A3F0906269F0800790632AE4F0A3F0CE
:1015340030012790632E121E2290632CE4F0A3F056
:10154400C390632FE0943290632EE09400402FE424
:10155400F0A3F09062FA04F0802490632C121E220F
:1015640090632EE4F0A3F0C390632DE09440906365
:0E1574002CE0941F4008E4F0A3F09062FAF01F
:0D158200D000D0D0D082D083D0F0D0E032A5
:070BBC00446330000000005B
:081E1A00789CE2541FF2E22261
:101B2700E5B154CF42B1789CE254E3F2E24414F2B7
:101B3700E254FCF2E24401F208E24480F2E244207B
:101B4700F278A1743BF2187460F2789EE4F208F21E
:0C1B5700121E1A44A0F253A8BFD2AF2205
:0C1DE900121E1A44C0F243A840D2AF22E0
:101D9900121E1A44A0F2789EE4F208F253A8BF2258
:030021000219CDF4
:1019CD00C0E0C0F0C083C082C0D075D000C000C0E0
:1019DD0004C005C006C007789DE230E71DE24480D3
:1019ED00F2906330120269EF2401FFE43EFEE43D04
:1019FD00FDE43CFC906330120281D007D006D00587
:0F1A0D00D004D000D0D0D082D083D0F0D0E0323F
:090BC300C102C10342631E0000DF
:10196E00906312120269EF4401FFEC9063120202BF
:10197E0081906311E4F09063162290630DE0FEA354
:10198E00E0FF2290630FE0FEA3E0FF22E475F0017A
:10199E000200F29063177401F0906316E4F0229047
:1019AE006304E09F906303E09E22906306E09F90A5
:0F19BE006305E09E22906311E004F0E0641822BC
:101CC70043A901D2AF75D104907105E4F090710476
:101CD7007424F090710174A0F090710074FDF022EB
:030024000208E4EB
:1008E400C0E0C0F0C083C082C0D075D000C000C0DA
:1008F40001C002C003C004C005C006C00790710156
:10090400E020E703020B14E04480F090631A12190C
:100914009A90631C12199A90631E12199AC39063D9
:100924001DE0940D90631CE094004006E4F0A3F0F5
:10093400D203C390631BE0940D90631AE0940040CB
:0709440006E4F0A3F0D2026B
:10094B0020833D906318E004F0E0C3941E50030233
:10095B000A53906311E064176003020A5390631902
:10096B00E09406400AE09414500512196E800B9027
:10097B006319E0C394014002E0FF1219A1020A536C
:10098B00906318E0D394005003020A39E0D39432F9
:10099B00401290631212028D0000000012197F04A6
:1009AB00F0020A26906316E06024906318E0C3946B
:1009BB0002401BE094075016A3E0C39406400FE0DF
:1009CB009414500A12196E1219C3604F8031906340
:1009DB0016E06039906318E0C394074030E094143C
:1009EB00502BA3E0C394014024E09406501F906366
:1009FB0012120269EF54FE1219771219C3601CA36D
:100A0B001202697801120256121979800E90631244
:100A1B0012028D0000000012197FF0906318E4F0B1
:100A2B00A3F0906311E0B418191219A1801490630C
:100A3B0016E0700E90631212028D00000000121966
:100A4B007FF0906319E004F0906317E0601B9063F4
:100A5B0011E4F0906317F0A3F0A3F090631212026D
:090A6B00699062BD120281D205FE
:100A7400C390631FE0941490631EE094005003023B
:100A84000B14E4F0A3F0300803020B14121988D3FA
:100A94001219AD400990630DE475F001801012192C
:100AA40088C31219AD500A90630D74FFF5F012005B
:100AB400F2121991D31219B8400990630FE475F03A
:100AC400018010121991C31219B8500A90630F745F
:100AD400FFF5F01200F2121988121E001219911279
:100AE4001E09D390630EE0940090630DE0940050CF
:100AF4000512000F8003121DB7D3906310E0940019
:100B040090630FE094005005121DA98003121DC4C8
:100B1400D007D006D005D004D003D002D001D00035
:0B0B2400D0D0D082D083D0F0D0E032DF
:070BCC0042633C05DDC10B93
:101CE700E0FEA3E0FF1203437B0AE4FAF9F81201CE
:101CF700A0E422906321E094DD906320E094042225
:100F93009062FBE0FFA3E0906320CFF0A3EFF0307B
:100FA3000B03021094D3906321E094EA906320E052
:100FB3009401500AE490633CF0A3F0021087D3122B
:100FC3001CFA5029E0FEA3E0FFEF2416FFEE34FEE7
:100FD300FEE434FFFDE434FFFCE47BBA7A0BF9F85A
:100FE300120115121CEF7BDD7A0402106ED390639D
:100FF30021E094EE906320E09408500E7C177D74FA
:10100300121CE77BEE7A0802106ED3906321E09402
:1010130012906320E0940B5017E0FEA3E0FF7C05E1
:101023007DDD1203437B02121CF17B127A0B803BA2
:10103300D3906321E094BC906320E0940C500D7C2A
:10104300237D2E121CE77BBC7A0C801FD390632177
:10105300E09491906320E0940F501FE0FEA3E0FF23
:101063007C2E7DE8121CEC7B917A0FF9F81201A01B
:1010730090633CEEF0A3EFF0800A90633C7405F0BC
:10108300A374DDF090633CE07002A3E0700BD20B1D
:0910930022C3121CFA4002C20B38
:01109C002231
:100BD3004162690044627EFFFFFFFF4662C100007D
:100BE30000000000C104C1054462BD0000000054C0
:100BF300626A0821222324042526272802292A2B76
:100C03002C012D2E2F306028629514010203041845
:100C13000506070810090A0B0C150D0E0F10051118
:100C2300121314081516171806191A1B1C091D1E72
:100C33001F205362823200000000000F12000000E8
:0C0C4300040001FF1637FF00416268004A
:1012760075F04B9062FFE41200F2D3906300E094A5
:10128600DD9062FFE094052275F04B906301E41255
:1012960000F2D3906302E094DD906301E0940522AE
:1012A60074FF75F0B51200F2C3906300E0944B90A2
:1012B60062FFE094002274FF75F0B51200F2C3904D
:1012C6006302E0944B906301E09400221202439083
:1012D60062C1120275C302023274FF75F0DB12009E
:1012E600F2C3906300E094252274FF75F0DB1200D0
:1012F600F2C3906302E09425229062BD02026974F3
:1013060005F0A374DDF0229062C6E064C522EE7596
:10131600F005A4246AF582E4346222EE75F005A491
:101326002495F582E43462227B017A6279C17406DF
:10133600F0E4FF2212024390627E0202819062C1B3
:0713460012026990627E2291
:101637002005030216CFC2051212FFEC4D4E4F7064
:04164700030216CCB8
:10164B001212FFEF906320F0906269E0602B9063C1
:10165B0020E0540FFBBB010F1212FF780412133A58
:10166B00906320EBF0804A906320E0641470421288
:10167B0012FF780812133A803812130D702D9062F6
:10168B00C5E0B401131212FF78041212D270099044
:10169B006320E0540FF080199062C5E0B4020A1287
:1016AB0012FF78081212D26008800090632074FF3A
:1016BB00F09062BD12028D00000000906320E0FFED
:0116CB0022FC
:0616CC007FFF227FFF22D8
:021A6500A907CF
:101A6700E4FFFEEB64017014121314F583E0B50173
:101A77000512131480180EEEB404ED22EB64027005
:101A870021FE121321F583E0B50112121321F5830C
:101A9700E5822DF582E43583F583E0FF220EEEB46F
:021AA70008E055
:011AA900221A
:0817EF00906321EFF0A3EDF07F
:1017F700E4A3F0A3F0906269E0603512134312127C
:10180700D8701812130D70139062C5E0B4010280EE
:10181700339062C5E064027050803C906321E0FF22
:10182700B414028037906321E0FF6401703B801994
:101837001213431212D8703112130D702C9062C517
:10184700E0B4010C906321E0FFA3E0FD7B01801170
:101857009062C5E0B40212906321E0FFA3E0FD7B34
:0E18670002121A65906323EFF0906323E0FFF6
:011875002250
:10065800E4906320F0906293E0F470030208E3E012
:10066800FFA3E0FD1217EF906320EFF09062937400
:05067800FFF0E4A3F017
:10067D00906269E06401705A906320E0FF906268B7
:10068D00E06F7044EF64036005EF642F705E90625D
:10069D00C674C5F090627E1202699062C112028129
:1006AD00906320E09062C5B403057402F08003747A
:1006BD0001F0E4FF121D8890632512132E121B63A7
:1006CD009062697402F08024906320E0906268F07B
:1006DD00801A906269E0B40213906320E0FF640415
:0C06ED006004EFB43006E4906269F02273
:1006F90012130D60030208E3906269E0600F9062D3
:100709007E1202691212D57004906269F09063201A
:10071900E0120317076901076904077805077808D4
:10072900077B0907860B07940D079F0F07AD110774
:10073900AD1407B31507B31807B91907C81B07E4A0
:100749001D07FC1F081A21082D23084E25084E28CD
:10075900086329088A2B08BD2D08BD30000008E36D
:10076900121DD1EF7006121DDDEF60030208C902E8
:1007790008D712127650030208E30208E075F02543
:1007890012127950030208E30208E012128E500394
:100799000208E30208E075F02512129150030208DD
:1007A900E30208E09062FF02085B90630102085BC4
:1007B9001212AE401F1212A640030208E38029124A
:1007C90012E71212B5400D1212DF1212B5400302E0
:1007D90008E38014E49062FF0208D31212C4400CAB
:1007E9001212BC40030208E3E40208D3E490630157
:1007F9000208D31212F71212CB400F1212EF121283
:10080900CB40030208E3E40208D3E4906301020841
:10081900D3121276400312130512128E50030208E6
:10082900E30208E09062FFE475F02512127D4003AF
:10083900121305906301E475F02512129550030215
:1008490008E30208E09062FF7402F0A374EEF090EE
:1008590063017402F0A374EEF0221212AE40081282
:1008690012A6500AE48004E49062FFF0A3F0121289
:10087900C440081212BC5062E4804FE490630180C6
:10088900491212E71212B5400B1212DF1212B550BB
:100899000AE48004E49062FFF0A3F01212F7121246
:1008A900CB400B1212EF1212CB502FE4801CE490B4
:1008B90063018016121DD1EF7006121DDDEF600E67
:1008C900E49062FFF0A3F0906301F0A3F02290623C
:0A08D900FF121305906301121305CE
:0108E30022F2
:101B9A0078C0E24408F278C2E2543FF278D0E244D4
:101BAA0002F278D2E254F3F2209104D2048002C203
:101BBA000430040F90632412132E121BCE90626914
:041BCA007401F02290
:040C4F0041633700C6
:101C8500906320F09063340202BE90000612005E5D
:101C9500FE90000802005E9000091200D090000C32
:011CA500221C
:100CC800E4906320F07FFFA374FFF0906334120276
:100CD800DE90000112005EFE120045FDEEC39D503D
:100CE80003020E5A121C89900001E41200D09000F1
:100CF8000E1202E712033DEFF46008906337742385
:100D0800F08009906337E06003E014F0121C8990CA
:100D1800000312005E6F601590000512005E600D02
:100D2800900004E41200D0900003020E56900005D3
:100D380012005EFE90000412005EC39E500B121C4F
:100D480089900004740102008B121C899000021221
:100D5800005E6F6048EFF4701C121C8FC39E400A3F
:100D68007404121C859000028061121C8990000A8C
:100D78007401020E4D121C899000087401121C9F08
:100D880012005E6F906334600C1202BE7401121C74
:100D98009CEF020E4D1202BE900009803DEFF470E8
:100DA80041121C8990000912005ED394005003027E
:100DB8000E5090000B12005EFE90000A12005ED3E7
:100DC8009E40117401121C8590000C12005E906305
:100DD80021F08054121C8990000A740112008B02C1
:100DE8000E50121C89121C96C394FF5008900008DC
:100DF800740112008B121C8FB506089063207402D0
:100E0800F08020121C89900007121C926E70399095
:100E180063207403121C8890000612005E9000087C
:100E28001200D0906321EFF0121C89E4121C9C740C
:100E3800FF1200D0906321E09000111200D090635F
:100E480020E09000121200D0121C89900002EF12CC
:020E580000D0C8
:010E5A002275
:101D880075AF3F8FAF75AEB975A402E5A530E1FB1D
:011D98002228
:101B63009063221202DE75AF3F8FAF906325E0C30F
:101B730094014022E5A530E0FB906322E475F00177
:101B83001202C7120045F5A675AEB975A40190639C
:071B930025E014F080D522CB
:101BCE009063211202DE906324E06027AE070FEED1
:101BDE002400FDE4343F8D82F583E493FE9063216F
:101BEE00E475F0011202C7EE1200BE906324E014F9
:041BFE00F080D3227E
:101D760078D2E254CFF2E24410F2907188E4F0C2D5
:021D86009222A7
:101C6100C390630EE0949690630DE094005012C30C
:101C7100906310E0949690630FE094005003D29229
:041C810022C29222C7
:040C530041633F01B9
:071E29007869E24401F22296
:101CA60043A902D2AF75D10890710D7401F09071FD
:101CB6000C745DF090710974A0F090710874FDF0D9
:011CC60022FB
:0300270002109D27
:10109D00C0E0C0F0C083C082C0D075D000C000C019
:1010AD0001C002C003C004C005C006C0079071098D
:0E10BD00E020E70302117F907109E04480F00B
:1010CB0090633EE004F0E0C39408400AA3E060069E
:1010DB00E4F09062F9F090633EE0C3940A4007E4B9
:0610EB00F0D207A304F09F
:1010F1009062F9E06004E0B4090E7F01121A1C90BD
:1011010062F97401F002117F9062F9E0B4010812F2
:101111001E297402F080679062F9E0B4030D7F022A
:10112100121A1C9062F97404F080539062F9E0B4D1
:101131000408121E297405F080449062F9E0B40598
:101141000D7F03121A1C9062F97406F080309062D0
:10115100F9E0B40608121E297407F080219062F9A3
:10116100E0B4070D7F04121A1C9062F97408F08034
:101171000D9062F9E0B40806121E297409F0D00737
:10118100D006D005D004D003D002D001D000D0D0F9
:09119100D082D083D0F0D0E0320E
:100C57004260030000426265000042626310004187
:100C670062670060406005FFFF00000000000000B1
:100C7700000000000000000000000000000000006D
:100C8700000000000000000000000000000000005D
:100C9700000000000000000000000000000000004D
:100CA70000000000000000416000004160010041B9
:050CB700600200C1060F
:1018F300EF25E0FFEE33FE74472FF58274603EF56B
:1019030083227FC37E05E4FDFC906320120275D31E
:10191300020232ECF0A3EDF0906326E475F00102CD
:1019230000F2D390630AE094EE906309E0940222FC
:10193300906326E0FEA3E0FFC322906000E025E071
:101943002405F582E43460F58322E4906326F0A352
:10195300F02233FE74052FF58274603EF5832290E6
:0B1963006327E025E0FF906326E022F0
:10038E0090632012028D000000009062F6E0FFA341
:10039E00E0906324CFF0A3EFF0906005E0F47003DB
:0503AE00A3E0F4703F24
:1003B30012194E1219339420EE94005015906324B1
:1003C300E0FCA3E0FDEF25E0FFEE1219551219162C
:1003D30080E112194D121933940EEE940150599085
:0F03E3006324E0FCA3E0FD1218F312191680E664
:1003F20012193DE0FFA3E0906326CFF0A3EFF09047
:100402006324E0FEA3E0FF906326EE8FF01200F279
:10041200906326E0C313FEA3E013FF906326EEF081
:10042200A3EFF012193DEEF0A3EFF0906000E004AC
:09043200F0E0C394204002E4F064
:10043B0012194D906320120275121962121955E0B0
:10044B00FEA3E0FFE4FCFD12010890632012028181
:10045B0012191B906326E07004A3E0642070D49003
:10046B006320120269780512024390632012028105
:10047B00906320120269AD07AC06906046E025E060
:10048B00FF906045E033FE74472FF58274603EF5B4
:10049B0083ECF0A3EDF090604512191EC3906046FB
:0F04AB00E0940E906045E094014004E4F0A3F06B
:1004BA0012194D906265F0A3F09062637410F0A374
:1004CA00E4F0121933940EEE9401400302055D1212
:1004DA0018F3E0FCA3E0FD906265E0FAA3E0FBD329
:1004EA00ED9BEC9A400F1218FAE0FFA3E0906265C8
:1004FA00CFF0A3EFF01219621218F8E0FCA3E0FDA6
:10050A00906263E0FAA3E0FBC3ED9BEC9A500F12F2
:10051A0018FAE0FFA3E0906263CFF0A3EFF09062D5
:10052A0063E0FEA3E0FFC3906266E09FFF9062650E
:10053A00E09EFED3EF9450EE9400400890626774F8
:10054A001EF08009906267E06003E014F012191B44
:03055A000204CCCC
:10055D00E47F8B7E06FDFC906320120275C31202B0
:10056D0032500C3006597F8B7E061219094050E42B
:10057D00906001F0A3F0D206906267E0B41E1BE01C
:10058D0014F0121925400774FFF5F01200F2C31292
:10059D0019264003020657020611906267E06003B8
:1005AD00020657200203020657C202C390630AE0F7
:1005BD0094DD906309E094054003020657803C12D8
:1005CD0019054048E47F6D7E0612190A40089060B7
:1005DD0001E064047036300371C203906001E0C322
:1005ED0094045003E004F0E4906002F0C206121986
:1005FD002540028043C31219265006E475F0018090
:10060D003C9063097402F0A374EEF02212190540B8
:10061D0006906002E06033300330C20390600274D4
:10062D0001F0E4906001F0C206D390630AE094C239
:10063D00906309E09401400874FF75F0FE0200F22A
:0A064D009063097401F0A374C2F079
:010657002280
:0B0CBC00C10844633800000000C109BB
:101D4F00CFF0A3EFF090630FE0FFA3E02290630DBD
:051D5F00E0FFA3E022FB
:10119A00E490630DF0A3F090630FF0A3F0D208126D
:1011AA000F9390633CE0FEA3E0FFC390630EE09FC1
:1011BA0090630DE09E401490633CE0FEA3E0FF9034
:1011CA006310E09F90630FE09E507C300960C20973
:1011DA00906338120269EF24BBFFE43EFEE43DFD52
:1011EA00E43CFC906338120281E47FE87E03FDFC54
:1011FA00906338120275C312023240329063381279
:10120A000269C3EF94E8FFEE9403FEED9400FDEC4F
:10121A009400FC90633812028190630DE475F0012A
:10122A001200F2121D5C90630FCFF0A3EFF09063EF
:10123A000DE0FEA3E0FF121E0090630FE0FEA3E0A4
:10124A00FF121E090211A9121D5C906303121D4FA1
:10125A00906305CFF0A3EFF0121D5C9062FF121DA0
:0C126A004F906301CFF0A3EFF0C2082208
:10176F000216D2E493A3F8E493A34003F68001F2A8
:10177F0008DFF48029E493A3F85407240CC8C3337B
:10178F00C4540F4420C8834004F456800146F6DF4A
:10179F00E4800B0102040810204080900B2FE47EA0
:1017AF00019360BCA3FF543F30E509541FFEE4933F
:1017BF00A360010ECF54C025E060A840B8E493A306
:1017CF00FAE493A3F8E493A3C8C582C8CAC583CA31
:1017DF00F0A3C8C582C8CAC583CADFE9DEE780BEE9
:010CC700002C
:10004500BB010689828A83E0225002E722BBFE02B9
:09005500E32289828A83E49322EC
:10005E00BB010CE58229F582E5833AF583E0225057
:10006E0006E92582F8E622BBFE06E92582F8E222A1
:0D007E00E58229F582E5833AF583E49322BB
:10008B00BB010FF8E58229F582E5833AF583E02879
:10009B00F0225009C58229F8E58226F622BBFE091B
:1000AB00C58229F8E22582F222F8EA2583F583E955
:0300BB0093282265
:1000BE00BB010689828A83F0225002F722BBFE0121
:0200CE00F3221B
:1000D000F8BB010DE58229F582E5833AF583E8F066
:1000E000225006E92582C8F622BBFE05E92582C812
:0200F000F222FA
:1000F200C5F0F8A3E028F0C5F0F8E5821582700299
:060102001583E038F02235
:0D010800EF2BFFEE3AFEED39FDEC38FC2246
:10011500E88FF0A4CC8BF0A42CFCE98EF0A42CFC89
:100125008AF0EDA42CFCEA8EF0A4CDA8F08BF0A407
:100135002DCC3825F0FDE98FF0A42CCD35F0FCEB66
:100145008EF0A4FEA9F0EB8FF0A4CFC5F02ECD392B
:0F015500FEE43CFCEAA42DCE35F0FDE43CFC2298
:1001640075F008758200EF2FFFEE33FECD33CDCC52
:1001740033CCC58233C5829BED9AEC99E5829840D5
:100184000CF582EE9BFEED9AFDEC99FC0FD5F0D6B2
:10019400E4CEFBE4CDFAE4CCF9A88222B800C1B9DC
:1001A4000059BA002DEC8BF084CFCECDFCE5F0CB1A
:1001B400F97818EF2FFFEE33FEED33FDEC33FCEB53
:1001C40033FB10D703994004EB99FB0FD8E5E4F90E
:1001D400FA227818EF2FFFEE33FEED33FDEC33FCFB
:1001E400C933C910D7059BE99A4007EC9BFCE99AEF
:1001F400F90FD8E0E4C9FAE4CCFB2275F010EF2F34
:10020400FFEE33FEED33FDCC33CCC833C810D70733
:100214009BEC9AE899400AED9BFDEC9AFCE899F86E
:0E0224000FD5F0DAE4CDFBE4CCFAE4C8F92201
:10023200EB9FF5F0EA9E42F0E99D42F0E89C45F022
:010242002299
:10024300E8600FECC313FCED13FDEE13FEEF13FF99
:03025300D8F122BD
:10025600E8600FEFC333FFEE33FEED33FDEC33FC06
:03026600D8F122AA
:0C026900E0FCA3E0FDA3E0FEA3E0FF2208
:0C027500E0F8A3E0F9A3E0FAA3E0FB220C
:0C028100ECF0A3EDF0A3EEF0A3EFF022F0
:10028D00A8828583F0D083D0821202A41202A41218
:10029D0002A41202A4E473E493A3C583C5F0C5833D
:1002AD00C8C582C8F0A3C583C5F0C583C8C582C8BB
:0102BD00221E
:0902BE00E0FBA3E0FAA3E0F92241
:1002C700F8E0FBA3A3E0F925F0F0E58215827002C0
:0702D7001583E0FA38F02264
:0902DE00EBF0A3EAF0A3E9F02221
:1002E700BB010DE58229F582E5833AF5830202BE5B
:1002F7005007E92582F8020370BBFE07E92582F85B
:10030700020379E58229F582E5833AF583020382C0
:10031700D083D082F8E4937012740193700DA3A375
:1003270093F8740193F5828883E473740293686089
:06033700EFA3A3A380DF89
:06033D008A838982E4734B
:10034300EC8EF0A4CCC5F0CCCDF8EFA4CEC5F02D47
:10035300FDE43CFCE8A42EC8C5F03DFDE43CFCEF05
:0D036300A4FFE5F028FEE43DFDE43CFC2293
:09037000E6FB08E6FA08E6F922B2
:09037900E2FB08E2FA08E2F922B5
:0C038200E493FB740193FA740293F922D7
:00000001FF
