:030000000217D70D
:0C17D700787FE4F6D8FD75812102181E11
:0C000300000000000000000000000000F1
:0B1E6900EF1FAC0670011E4C70F6224B
:10002A00AB07AA06EB1BAE0270011A4E60097FAA43
:08003A007E05121E6980ED2213
:10138800907120E04480F07F057E00121E69E4FF22
:10139800FE12002A75A75575AC589071327450F03A
:1013A8009071307403F0907136742FF07F18EF2429
:1013B80066FDE434718D82F583E4F00FEFB433EE0B
:1013C800904011E4935407FF90711CE054F84FF0DB
:1013D800904017E493547FFF90711DE054804FF0C4
:1013E800904010E493FF5401C43333335480FE908B
:1013F8007123E0547F4EF0EFC313543F4440FFA3E2
:10140800E054804FF0904012E493FF540FFE907127
:1014180046E054F04EF0EFC4540FFF90714FE05483
:10142800F04FF0904013E493543FFF907140E05424
:10143800C04FF0904014E493907126F0904015E46A
:0E14480093907128F0904016E49390712AF072
:011456002273
:081E86007407F0A374D1F022EF
:1015E30075D9DD12138875D95590715EE054FEF0FC
:1015F30075D9BB121CA8121DD8121D7B121694128A
:101603001B9B121D3B121D1A121C0E121DEA906326
:1016130041121E8690630B121E86906307121E866C
:10162300906309121E8612145790630DE0FFA3E026
:10163300906303CFF0A3EFF090630FE0FFA3E0907C
:101643006305CFF0A3EFF0C2081210AA12152412FB
:101653001B5D121C76C29430040C7B017A62798282
:10166300120CD31206589062FFE0FEA3E0FF12189B
:10167300EA906303EEF0A3EFF0906301E0FEA3E0D2
:10168300FF1218EA906305EEF0A3EFF0121CD58069
:01169300B89E
:100B2F0042630707D142630907D142630B07D1C163
:100B3F000A4262FF07D142630307D142630107D123
:050B4F0042630507D11F
:101DAE00AC06ECF218EFF27817E222E47BD17A0758
:051DBE00F9F80201A08C
:101694007812E24401F27856E4F278277407F218DB
:1016A40074D0F27833E4F218F27819E24401F27853
:1016B40011E24401F27817E24401F27812E24401A3
:1016C400F27814E24401F27818E24401F278D3E2A9
:1016D40054CFF2E24410F2E254FCF2E24401F290FC
:1016E400718AE4F090718C740AF07812E24402F288
:1016F4007857E4F278297407F21874D0F27837E452
:10170400F218F27819E24402F27811E24402F27813
:1017140017E24402F27812E24402F27814E244023C
:10172400F27818E24402F278D3E254F3F2E2440489
:08173400F290718B7409F022A0
:091E74007833121DAE4401F22284
:091E7D007837121DAE4402F22276
:0C1E45007818E230E0037F01227F0022C9
:0C1E51007818E230E1037F01227F0022BC
:0D1E2B007818E24401F290718C740AF022E4
:0E000F007818E254FEF290718CE4F0D2962242
:0D1E38007818E24402F290718B7409F022D8
:0E1E1D007818E254FDF290718BE4F0D2952219
:1018EA0090632B7407F0A374D1F0300A0A90632B2B
:1018FA007406F0A37440F0906341E0FCA3E0FD128B
:10190A000343121DB9A804A905AA06AB0790632BC5
:10191A00E0FEA3E0FFE4FCFD120115121DB9AC06BE
:10192A00AD07D3906308E09D906307E09C5005E003
:10193A00FCA3E0FDD390630AE09D906309E09C500C
:10194A0005E0FCA3E0FDD390630CE09D90630BE0FF
:0C195A009C5005E0FCA3E0FDAE04AF05CE
:01196600225E
:100B54004162F800C1014162FA004162F900416258
:100B6400D500602062D6FFFF0000000000000000F6
:100B74000000000000000000000000000000000071
:100B84000000000000004162C7004162C800C100CB
:100B94004162C9004162CA004462CB0000000042C5
:090BA40062CF00004262D1FFFFA4
:101B1E00907123E054F8F0E0441EF09071227407A7
:101B2E00F0227FEA7E0B90632BFDFC120275C3023E
:101B3E000232E0FF906334E09F906333E09E229088
:0F1B4E0062CAE0C3941422906333E0FFA3E02245
:101CA80078F2E24403F278E3E244C0F278F0E254D6
:101CB800FDF208E254FDF208E2440CF278D0E25456
:0D1CC800F7F208E254F7F208E244C0F222FD
:101DD80043AA04D2AF786AE24479F27F017E000216
:021DE800002ACF
:101A900043AA04D2AFEF24FE601C14602114602618
:101AA0002403702E907123E054D8F0E0441D121BE3
:101AB00028759917801C121B1E7599198014121B0A
:101AC0001E759918800C907123E054D8121B247550
:091AD000990B7869E24448F22206
:101D96009062D3E0FEA3E0FF7C007D0C120343E4D7
:081DA6007B0AFAF9F80201A022
:1015240090632B12028D000000009062F8E06402C8
:0515340070030215E246
:101539009062C7E004F0E0C3946450030215E2E44A
:01154900F0B1
:0F154A00121D9690632B1202819062F8E07028B8
:10155900121B3050089062C8E004F08005E49062E4
:10156900C8F09062C8E0C3940AE44007F09062F8BA
:0815790004F0229062F8F02258
:081581009062F8E0640170596A
:1015890020000FD20090633512028D000000001276
:0F1599001E5DE47F307E75906335121B37403A3C
:1015A800E4121B3050089062C9E004F08005E49012
:1015B80062C9F09062C9E0C3940A4018E4F09062EE
:1015C800F87402F0121E0D90633512028D000000AF
:0A15D80000C200229062F87401F0D6
:0115E20022E6
:101C76009062F8E07008300728C20702038E90626F
:101C8600F8E0B4010B9063077403F0A374E8F02244
:101C96009062F8E0B4020A9063077401F0A374F44A
:021CA600F0222A
:101B5D009062FDE0FEA3E0FF9062FAE0701AD3EF11
:101B6D009420EE940E5004D2018002C20190630BBA
:101B7D007407F0A374D1F022C3EF94C8EE940E4015
:0D1B8D0002C20190630B7401F0A374F4F028
:011B9A002228
:03004200020E6645
:100E6600C0E0C0F0C083C082C0D075D000C000C052
:100E760001C002C003C004C005C006C007786BE20B
:060E860020E103020F83CE
:100E8C00AF93EF75F010A4FFE594C4540FFDEF4D34
:100E9C00FF906333E5F0F0A3EFF0E24402F29062CE
:090EAC00F9E064026003020F5337
:100EB500121B4D505EE004F0E0C39402404A90627C
:100EC500CFE0FEA3D3121B40400CE0FFA3E09062ED
:100ED500CFCFF0A3EFF09062D1E0FEA3C3121B4089
:100EE500500CE0FFA3E09062D1CFF0A3EFF0906249
:100EF500CB120275906333E0FEA3E0FFE4FCFD1224
:100F050001089062CB120281121B4D50067869E2EE
:100F15004401F2121B4D4066A312026978041202C5
:100F2500439062F6EEF0A3EFF09062F97403F0904F
:100F350062CAE4F09062CFF0A3F09062D174FFF042
:0C0F4500A3F09062CB12028D00000000AF
:100F510080309062F9E0B40508121B559062FB8065
:100F61001C9062F9E0B40708121B559062D3800D02
:100F71009062F9E0B4090B121B559062FDCFF0A30A
:020F8100EFF08F
:100F8300D007D006D005D004D003D002D001D000C2
:0B0F9300D0D0D082D083D0F0D0E0326C
:100BAD0041632A0042632000004263220000426339
:0A0BBD00240000446326000000003D
:071E9600E475F0010200F207
:101D7B0043A820D2AF75D10178957401F21874760F
:0B1D8B00F2789174A0F21874FDF222AF
:03001E00020F9E30
:100F9E00C0E0C0F0C083C082C0D075D000C000C019
:100FAE0001C002C003C004C005C006C0077891E2AC
:100FBE0020E70302108FE24480F2D209906283E0B0
:080FCE00C394FF5003E004F09E
:100FD600300425906269E0601F906320121E96C35C
:100FE600906321E09460906320E094EA4011E4F07D
:0F0FF600A3F0906269F08007906320E4F0A3F00D
:10100500300127906324121E96906322E4F0A3F02A
:10101500C3906325E09432906324E09400402FE46C
:10102500F0A3F09062FA04F08024906322121E96D9
:10103500906324E4F0A3F0C3906323E094409063AD
:0E10450022E0941F4008E4F0A3F09062FAF05D
:10105300200A39906326120269EF2401FFE43EFE61
:10106300E43DFDE43CFC9063261202817F807EEE2A
:101073007D367C00906326120275C3120232400C47
:0C10830090632612028D00000000D20ACB
:10108F00D007D006D005D004D003D002D001D000B5
:0B109F00D0D0D082D083D0F0D0E0325F
:070BC700446335000000004B
:081E8E00789CE2541FF2E222ED
:101B9B00E5B154CF42B1789CE254E3F2E24414F243
:101BAB00E254FCF2E24401F208E24480F2E2442007
:101BBB00F278A1743BF2187460F2789EE4F208F2AA
:0C1BCB00121E8E44A0F253A8BFD2AF221D
:0C1E5D00121E8E44C0F243A840D2AF22F7
:101E0D00121E8E44A0F2789EE4F208F253A8BF226F
:03002100021A417F
:101A4100C0E0C0F0C083C082C0D075D000C000C06B
:101A510004C005C006C007789DE230E71DE244805E
:101A6100F2906335120269EF2401FFE43EFEE43D8A
:101A7100FDE43CFC906335120281D007D006D0050D
:0F1A8100D004D000D0D0D082D083D0F0D0E032CB
:090BCE00C102C10342631E0000D4
:1019E200906312120269EF4401FFEC90631202024B
:1019F20081906311E4F09063162290630DE0FEA3E0
:101A0200E0FF2290630FE0FEA3E0FF22E475F00105
:101A12000200F29063177401F0906316E4F02290D2
:101A22006304E09F906303E09E22906306E09F9030
:0F1A32006305E09E22906311E004F0E064182247
:101D3B0043A901D2AF75D104907105E4F090710401
:101D4B007424F090710174A0F090710074FDF02276
:030024000208E4EB
:1008E400C0E0C0F0C083C082C0D075D000C000C0DA
:1008F40001C002C003C004C005C006C00790710156
:10090400E020E703020B14E04480F090631A121A0B
:100914000E90631C121A0E90631E121A0EC390637B
:100924001DE0940D90631CE094004006E4F0A3F0F5
:10093400D203C390631BE0940D90631AE0940040CB
:0709440006E4F0A3F0D2026B
:10094B0020833D906318E004F0E0C3941E50030233
:10095B000A53906311E064176003020A5390631902
:10096B00E09406400AE0941450051219E2800B90B3
:10097B006319E0C394014002E0FF121A15020A53F7
:10098B00906318E0D394005003020A39E0D39432F9
:10099B00401290631212028D000000001219F30432
:1009AB00F0020A26906316E06024906318E0C3946B
:1009BB0002401BE094075016A3E0C39406400FE0DF
:1009CB009414500A1219E2121A37604F8031906357
:1009DB0016E06039906318E0C394074030E094143C
:1009EB00502BA3E0C394014024E09406501F906366
:1009FB0012120269EF54FE1219EB121A37601CA384
:100A0B0012026978011202561219ED800E906312D0
:100A1B0012028D000000001219F3F0906318E4F03D
:100A2B00A3F0906311E0B41819121A158014906397
:100A3B0016E0700E90631212028D00000000121966
:100A4B00F3F0906319E004F0906317E0601B906380
:100A5B0011E4F0906317F0A3F0A3F090631212026D
:090A6B00699062BD120281D205FE
:100A7400C390631FE0941490631EE094005003023B
:100A84000B14E4F0A3F0300803020B141219FCD386
:100A9400121A21400990630DE475F00180101219B7
:100AA400FCC3121A21500A90630D74FFF5F0120072
:100AB400F2121A05D3121A2C400990630FE475F050
:100AC400018010121A05C3121A2C500A90630F7475
:100AD400FFF5F01200F21219FC121E74121A05121C
:100AE4001E7DD390630EE0940090630DE09400505B
:100AF4000512000F8003121E2BD3906310E09400A4
:100B040090630FE094005005121E1D8003121E38DE
:100B1400D007D006D005D004D003D002D001D00035
:0B0B2400D0D0D082D083D0F0D0E032DF
:070BD70042634107D1C10B8D
:101D5B00E0FEA3E0FF1203437B0AE4FAF9F8120159
:101D6B00A0E42290632CE094DD90632BE09404229A
:1010AA009062FBE0FFA3E090632BCFF0A3EFF03058
:1010BA000B030211ABD390632CE094EA90632BE00C
:1010CA009401500AE4906341F0A3F002119ED312F6
:1010DA001D6E5029E0FEA3E0FFEF2416FFEE34FE5A
:1010EA00FEE434FFFDE434FFFCE47BA27A0FF9F856
:1010FA00120115121D637BDD7A04021185D39063F8
:10110A002CE094EE90632BE09408500E7C1F7D44F3
:10111A00121D5B7BEE7A08021185D390632CE09452
:10112A001290632BE0940B5017E0FEA3E0FF7C07BC
:10113A007DD11203437B02121D657B127A0B803B21
:10114A00D390632CE094BC90632BE0940C500D7CFC
:10115A002E7DE6121D5B7BBC7A0C801FD390632C1C
:10116A00E0949190632BE0940F501FE0FEA3E0FF00
:10117A007C3E7D88121D607B917A0FF9F81201A0DE
:10118A00906341EEF0A3EFF0800A9063417407F098
:10119A00A374D1F0906341E07002A3E0700BD20B0C
:0911AA0022C3121D6E4002C20BAB
:0111B3002219
:100BDE004162690044627EFFFFFFFF4662C1000072
:100BEE0000000000C104C1054462BD0000000054B5
:100BFE00626A0821222324042526272802292A2B6B
:100C0E002C012D2E2F30602862951401020304183A
:100C1E000506070810090A0B0C150D0E0F1005110D
:100C2E00121314081516171806191A1B1C091D1E67
:100C3E001F205362823200000000000F12000000DD
:0C0C4E00040001FF173CFF004162680039
:1012B10075F0649062FFE41200F2D3906300E09451
:1012C100D19062FFE094072275F064906301E4120B
:1012D10000F2D3906302E094D1906301E09407227D
:1012E10074FF75F09C1200F2C3906300E094649067
:1012F10062FFE094002274FF75F09C1200F2C3902B
:101301006302E09464906301E0940022120243902E
:1013110062C1120275C302023274FF75F0CE12006F
:10132100F2C3906300E094322274FF75F0CE120094
:10133100F2C3906302E09432229062BD02026974AA
:1013410007F0A374D1F0229062C6E064C522EE7565
:10135100F005A4246AF582E4346222EE75F005A456
:101361002495F582E43462227B017A6279C17406A4
:10137100F0E4FF2212024390627E0202819062C178
:0713810012026990627E2256
:10173C002005030217D4C20512133AEC4D4E4F701C
:04174C00030217D1AC
:1017500012133AEF90632BF0906269E0602B906374
:101760002BE0540FFBBB010F12133A7804121375D0
:1017700090632BEBF0804A90632BE064147042126C
:10178000133A78081213758038121348702D90623E
:10179000C5E0B4011312133A780412130D700990C6
:1017A000632BE0540FF080199062C5E0B4020A1276
:1017B000133A780812130D6008800090632B74FFB1
:1017C000F09062BD12028D0000000090632BE0FFDC
:0117D00022F6
:0617D1007FFF227FFF22D2
:021AD900A9075B
:101ADB00E4FFFEEB6401701412134FF583E0B501C4
:101AEB000512134F80180EEEB404ED22EB64027056
:101AFB0021FE12135CF583E0B5011212135CF58322
:101B0B00E5822DF582E43583F583E0FF220EEEB4FA
:021B1B0008E0E0
:011B1D0022A5
:0818630090632CEFF0A3EDF0FF
:10186B00E4A3F0A3F0906269E0603512137E1213CB
:10187B0013701812134870139062C5E0B401028004
:10188B00339062C5E064027050803C90632CE0FFA3
:10189B00B41402803790632CE0FF6401703B801915
:1018AB0012137E1213137031121348702C9062C5F1
:1018BB00E0B4010C90632CE0FFA3E0FD7B018011F1
:1018CB009062C5E0B4021290632CE0FFA3E0FD7BB5
:0E18DB0002121AD990632EEFF090632EE0FFF8
:0118E90022DC
:10065800E490632BF0906293E0F470030208E3E007
:10066800FFA3E0FD12186390632BEFF09062937480
:05067800FFF0E4A3F017
:10067D00906269E06401705A90632BE0FF906268AC
:10068D00E06F7044EF64036005EF642F705E90625D
:10069D00C674C5F090627E1202699062C112028129
:1006AD0090632BE09062C5B403057402F08003746F
:1006BD0001F0E4FF121DFC906330121369121BD779
:1006CD009062697402F0802490632BE0906268F070
:1006DD00801A906269E0B4021390632BE0FF64040A
:0C06ED006004EFB43006E4906269F02273
:1006F90012134860030208E3906269E0600F906298
:100709007E1202691213107004906269F090632BD3
:10071900E0120317076901076904077805077808D4
:10072900077B0907860B07940D079F0F07AD110774
:10073900AD1407B31507B31807B91907C81B07E4A0
:100749001D07FC1F081A21082D23084E25084E28CD
:10075900086329088A2B08BD2D08BD30000008E36D
:10076900121E45EF7006121E51EF60030208C902FE
:1007790008D71212B150030208E30208E075F032FB
:100789001212B450030208E30208E01212C950031E
:100799000208E30208E075F0321212CC5003020895
:1007A900E30208E09062FF02085B90630102085BC4
:1007B9001212E9401F1212E140030208E3802912D4
:1007C90013221212F0400D12131A1212F0400302F2
:1007D90008E38014E49062FF0208D31212FF400C70
:1007E9001212F740030208E3E40208D3E49063011C
:1007F9000208D3121332121306400F12132A1213CE
:100809000640030208E3E40208D3E4906301020806
:10081900D31212B140031213401212C95003020835
:10082900E30208E09062FFE475F0321212B8400367
:10083900121340906301E475F0321212D050030292
:1008490008E30208E09062FF7403F0A374E8F090F3
:1008590063017403F0A374E8F0221212E94008124C
:1008690012E1500AE48004E49062FFF0A3F012124E
:10087900FF40081212F75062E4804FE49063018050
:10088900491213221212F0400B12131A1212F050CD
:100899000AE48004E49062FFF0A3F0121332121309
:1008A90006400B12132A121306502FE4801CE49001
:1008B90063018016121E45EF7006121E51EF600E7D
:1008C900E49062FFF0A3F0906301F0A3F02290623C
:0A08D900FF12134090630112134058
:0108E30022F2
:101C0E0078C0E24408F278C2E2543FF278D0E2445F
:101C1E0002F278D2E254F3F2209104D2048002C28E
:101C2E000430040F90632F121369121C42906269E4
:041C3E007401F0221B
:040C5A0041633C00B6
:101CF90090632BF09063390202BE90000612005ED9
:101D0900FE90000802005E9000091200D090000CBD
:011D190022A7
:100CD300E490632BF07FFFA374FFF090633912025B
:100CE300DE90000112005EFE120045FDEEC39D5032
:100CF30003020E65121CFD900001E41200D0900067
:100D03000E1202E712033DEFF4600890633C742374
:100D1300F0800990633CE06003E014F0121CFD9046
:100D2300000312005E6F601590000512005E600DF7
:100D3300900004E41200D0900003020E61900005BD
:100D430012005EFE90000412005EC39E500B121C44
:100D5300FD900004740102008B121CFD900002122E
:100D6300005E6F6048EFF4701C121D03C39E400ABF
:100D73007404121CF99000028061121CFD90000A99
:100D83007401020E58121CFD9000087401121D1309
:100D930012005E6F906339600C1202BE7401121D63
:100DA30010EF020E581202BE900009803DEFF4705E
:100DB30041121CFD90000912005ED39400500302FF
:100DC3000E5B90000B12005EFE90000A12005ED3D1
:100DD3009E40117401121CF990000C12005E906386
:100DE3002CF08054121CFD90000A740112008B0237
:100DF3000E5B121CFD121D0AC394FF5008900008DD
:100E0300740112008B121D03B5060890632B740244
:100E1300F08020121CFD900007121D066E703990A1
:100E2300632B7403121CFC90000612005E900008F2
:100E33001200D090632CEFF0121CFDE4121D10740D
:100E4300FF1200D090632CE09000111200D0906349
:100E53002BE09000121200D0121CFD900002EF1242
:020E630000D0BD
:010E6500226A
:101DFC0075AF3F8FAF75AEB975A402E5A530E1FBA9
:011E0C0022B3
:101BD70090632D1202DE75AF3F8FAF906330E0C385
:101BE70094014022E5A530E0FB90632DE475F001F8
:101BF7001202C7120045F5A675AEB975A401906328
:071C070030E014F080D5224B
:101C420090632C1202DE90632FE06027AE070FEE46
:101C52002400FDE4343F8D82F583E493FE90632CEF
:101C6200E475F0011202C7EE1200BE90632FE01479
:041C7200F080D32209
:101DEA0078D2E254CFF2E24410F2907188E4F0C261
:021DFA00922233
:101CD500C390630EE094C890630DE094005012C366
:101CE500906310E094C890630FE094005003D29283
:041CF50022C2922253
:040C5E0041634401A9
:071E9D007869E24401F22222
:101D1A0043A902D2AF75D10890710D7401F0907188
:101D2A000C745DF090710974A0F090710874FDF064
:011D3A002286
:030027000211B40F
:1011B400C0E0C0F0C083C082C0D075D000C000C001
:1011C40001C002C003C004C005C006C00790710975
:0E11D400E020E703021296907109E04480F0DB
:1011E200906343E004F0E0C39408400AA3E0600681
:1011F200E4F09062F9F0906343E0C3940A4007E49C
:06120200F0D207A304F086
:101208009062F9E06004E0B4090E7F01121A909030
:1012180062F97401F00212969062F9E0B4010812C2
:101228001E9D7402F080679062F9E0B4030D7F029E
:10123800121A909062F97404F080539062F9E0B445
:101248000408121E9D7405F080449062F9E0B4050C
:101258000D7F03121A909062F97406F08030906244
:10126800F9E0B40608121E9D7407F080219062F917
:10127800E0B4070D7F04121A909062F97408F080A8
:101288000D9062F9E0B40806121E9D7409F0D007AB
:10129800D006D005D004D003D002D001D000D0D0E1
:0912A800D082D083D0F0D0E032F6
:100C6200426003000042626500004262631000417C
:100C720062670060406005FFFF00000000000000A6
:100C82000000000000000000000000000000000062
:100C92000000000000000000000000000000000052
:100CA2000000000000000000000000000000000042
:100CB20000000000000000416000004160010041AE
:050CC200600200C10604
:10196700EF25E0FFEE33FE74472FF58274603EF5F6
:1019770083227FC37E05E4FDFC90632B120275D39F
:10198700020232ECF0A3EDF0906331E475F001024E
:1019970000F2D390630AE094E8906309E09403228D
:1019A700906331E0FEA3E0FFC322906000E025E0F2
:1019B7002405F582E43460F58322E4906331F0A3D3
:1019C700F02233FE74052FF58274603EF583229072
:0B19D7006332E025E0FF906331E02266
:10038E0090632B12028D000000009062F6E0FFA336
:10039E00E090632FCFF0A3EFF0906005E0F47003D0
:0503AE00A3E0F4703F24
:1003B3001219C21219A79420EE9400501590632FBE
:1003C300E0FCA3E0FDEF25E0FFEE1219C912198A44
:1003D30080E11219C11219A7940EEE94015059909D
:0F03E300632FE0FCA3E0FD12196712198A80E670
:1003F2001219B1E0FFA3E0906331CFF0A3EFF090C8
:10040200632FE0FEA3E0FF906331EE8FF01200F263
:10041200906331E0C313FEA3E013FF906331EEF06B
:10042200A3EFF01219B1EEF0A3EFF0906000E00438
:09043200F0E0C394204002E4F064
:10043B001219C190632B1202751219D61219C9E049
:10044B00FEA3E0FFE4FCFD12010890632B12028176
:10045B0012198F906331E07004A3E0642070D49084
:10046B00632B120269780512024390632B120281EF
:10047B0090632B120269AD07AC06906046E025E055
:10048B00FF906045E033FE74472FF58274603EF5B4
:10049B0083ECF0A3EDF0906045121992C390604687
:0F04AB00E0940E906045E094014004E4F0A3F06B
:1004BA001219C1906265F0A3F09062637410F0A300
:1004CA00E4F01219A7940EEE9401400302055D129E
:1004DA001967E0FCA3E0FD906265E0FAA3E0FBD3B4
:1004EA00ED9BEC9A400F12196EE0FFA3E090626553
:1004FA00CFF0A3EFF01219D612196CE0FCA3E0FDBD
:10050A00906263E0FAA3E0FBC3ED9BEC9A500F12F2
:10051A00196EE0FFA3E0906263CFF0A3EFF0906260
:10052A0063E0FEA3E0FFC3906266E09FFF9062650E
:10053A00E09EFED3EF9450EE9400400890626774F8
:10054A001EF08009906267E06003E014F012198FD0
:03055A000204CCCC
:10055D00E47F8B7E06FDFC90632B120275C31202A5
:10056D0032500C3006597F8B7E0612197D4050E4B7
:10057D00906001F0A3F0D206906267E0B41E1BE01C
:10058D0014F0121999400774FFF5F01200F2C3121E
:10059D00199A4003020657020611906267E0600344
:1005AD00020657200203020657C202C390630AE0F7
:1005BD0094D1906309E094074003020657803C12E2
:1005CD0019794048E47F6D7E0612197E40089060CF
:1005DD0001E064047036300371C203906001E0C322
:1005ED0094045003E004F0E4906002F0C206121986
:1005FD009940028043C312199A5006E475F00180A8
:10060D003C9063097403F0A374E8F0221219794049
:10061D0006906002E06033300330C20390600274D4
:10062D0001F0E4906001F0C206D390630AE09458A3
:10063D00906309E09402400874FF75F0FE0200F229
:0A064D009063097402F0A37458F0E2
:010657002280
:0B0CC700C10844633D00000000C109AB
:101DC300CFF0A3EFF090630FE0FFA3E02290630D49
:051DD300E0FFA3E02287
:10145700E490630DF0A3F090630FF0A3F0D208C3FC
:1014670090630EE094D190630DE09407400E906373
:1014770010E094D190630FE09407507C300960C26C
:101487000990633D120269EF24FAFFE43EFEE43D52
:10149700FDE43CFC90633D120281E47FE87E03FD9E
:1014A700FC90633D120275C3120232403290633DD5
:1014B700120269C3EF94E8FFEE9403FEED9400FD7A
:1014C700EC9400FC90633D12028190630DE475F08B
:1014D700011200F2121DD090630FCFF0A3EFF0902E
:1014E700630DE0FEA3E0FF121E7490630FE0FEA3FE
:1014F700E0FF121E7D021466121DD0906303121DB9
:10150700C3906305CFF0A3EFF0121DD09062FF12D6
:0D1517001DC3906301CFF0A3EFF0C20822C6
:1017E3000215E3E493A3F8E493A34003F68001F224
:1017F30008DFF48029E493A3F85407240CC8C33307
:10180300C4540F4420C8834004F456800146F6DFD5
:10181300E4800B0102040810204080900B2FE47E2B
:10182300019360BCA3FF543F30E509541FFEE493CA
:10183300A360010ECF54C025E060A840B8E493A391
:10184300FAE493A3F8E493A3C8C582C8CAC583CABC
:10185300F0A3C8C582C8CAC583CADFE9DEE780BE74
:010CD2000021
:10004500BB010689828A83E0225002E722BBFE02B9
:09005500E32289828A83E49322EC
:10005E00BB010CE58229F582E5833AF583E0225057
:10006E0006E92582F8E622BBFE06E92582F8E222A1
:0D007E00E58229F582E5833AF583E49322BB
:10008B00BB010FF8E58229F582E5833AF583E02879
:10009B00F0225009C58229F8E58226F622BBFE091B
:1000AB00C58229F8E22582F222F8EA2583F583E955
:0300BB0093282265
:1000BE00BB010689828A83F0225002F722BBFE0121
:0200CE00F3221B
:1000D000F8BB010DE58229F582E5833AF583E8F066
:1000E000225006E92582C8F622BBFE05E92582C812
:0200F000F222FA
:1000F200C5F0F8A3E028F0C5F0F8E5821582700299
:060102001583E038F02235
:0D010800EF2BFFEE3AFEED39FDEC38FC2246
:10011500E88FF0A4CC8BF0A42CFCE98EF0A42CFC89
:100125008AF0EDA42CFCEA8EF0A4CDA8F08BF0A407
:100135002DCC3825F0FDE98FF0A42CCD35F0FCEB66
:100145008EF0A4FEA9F0EB8FF0A4CFC5F02ECD392B
:0F015500FEE43CFCEAA42DCE35F0FDE43CFC2298
:1001640075F008758200EF2FFFEE33FECD33CDCC52
:1001740033CCC58233C5829BED9AEC99E5829840D5
:100184000CF582EE9BFEED9AFDEC99FC0FD5F0D6B2
:10019400E4CEFBE4CDFAE4CCF9A88222B800C1B9DC
:1001A4000059BA002DEC8BF084CFCECDFCE5F0CB1A
:1001B400F97818EF2FFFEE33FEED33FDEC33FCEB53
:1001C40033FB10D703994004EB99FB0FD8E5E4F90E
:1001D400FA227818EF2FFFEE33FEED33FDEC33FCFB
:1001E400C933C910D7059BE99A4007EC9BFCE99AEF
:1001F400F90FD8E0E4C9FAE4CCFB2275F010EF2F34
:10020400FFEE33FEED33FDCC33CCC833C810D70733
:100214009BEC9AE899400AED9BFDEC9AFCE899F86E
:0E0224000FD5F0DAE4CDFBE4CCFAE4C8F92201
:10023200EB9FF5F0EA9E42F0E99D42F0E89C45F022
:010242002299
:10024300E8600FECC313FCED13FDEE13FEEF13FF99
:03025300D8F122BD
:10025600E8600FEFC333FFEE33FEED33FDEC33FC06
:03026600D8F122AA
:0C026900E0FCA3E0FDA3E0FEA3E0FF2208
:0C027500E0F8A3E0F9A3E0FAA3E0FB220C
:0C028100ECF0A3EDF0A3EEF0A3EFF022F0
:10028D00A8828583F0D083D0821202A41202A41218
:10029D0002A41202A4E473E493A3C583C5F0C5833D
:1002AD00C8C582C8F0A3C583C5F0C583C8C582C8BB
:0102BD00221E
:0902BE00E0FBA3E0FAA3E0F92241
:1002C700F8E0FBA3A3E0F925F0F0E58215827002C0
:0702D7001583E0FA38F02264
:0902DE00EBF0A3EAF0A3E9F02221
:1002E700BB010DE58229F582E5833AF5830202BE5B
:1002F7005007E92582F8020370BBFE07E92582F85B
:10030700020379E58229F582E5833AF583020382C0
:10031700D083D082F8E4937012740193700DA3A375
:1003270093F8740193F5828883E473740293686089
:06033700EFA3A3A380DF89
:06033D008A838982E4734B
:10034300EC8EF0A4CCC5F0CCCDF8EFA4CEC5F02D47
:10035300FDE43CFCE8A42EC8C5F03DFDE43CFCEF05
:0D036300A4FFE5F028FEE43DFDE43CFC2293
:09037000E6FB08E6FA08E6F922B2
:09037900E2FB08E2FA08E2F922B5
:0C038200E493FB740193FA740293F922D7
:00000001FF
